{
  "address": "0xCf7Ed3AccA5a467e9e704C703E8D87F634fB0Fc9",
  "abi": [
    {
      "inputs": [
        {
          "internalType": "address",
          "name": "vrfCoordinate",
          "type": "address"
        },
        {
          "internalType": "uint256",
          "name": "entranceFee",
          "type": "uint256"
        },
        {
          "internalType": "bytes32",
          "name": "gasLane",
          "type": "bytes32"
        },
        {
          "internalType": "uint256",
          "name": "subscriptionId",
          "type": "uint256"
        },
        {
          "internalType": "uint32",
          "name": "callbackGasLimit",
          "type": "uint32"
        },
        {
          "internalType": "uint256",
          "name": "interval",
          "type": "uint256"
        }
      ],
      "stateMutability": "nonpayable",
      "type": "constructor"
    },
    {
      "inputs": [
        {
          "internalType": "address",
          "name": "have",
          "type": "address"
        },
        {
          "internalType": "address",
          "name": "want",
          "type": "address"
        }
      ],
      "name": "OnlyCoordinatorCanFulfill",
      "type": "error"
    },
    {
      "inputs": [
        {
          "internalType": "address",
          "name": "have",
          "type": "address"
        },
        {
          "internalType": "address",
          "name": "owner",
          "type": "address"
        },
        {
          "internalType": "address",
          "name": "coordinator",
          "type": "address"
        }
      ],
      "name": "OnlyOwnerOrCoordinator",
      "type": "error"
    },
    {
      "inputs": [],
      "name": "Raffle_NotOpened",
      "type": "error"
    },
    {
      "inputs": [],
      "name": "Raffle__FailedTransfer",
      "type": "error"
    },
    {
      "inputs": [],
      "name": "Raffle__NotEnoughAmount",
      "type": "error"
    },
    {
      "inputs": [
        {
          "internalType": "uint256",
          "name": "currentBalance",
          "type": "uint256"
        },
        {
          "internalType": "uint256",
          "name": "numPlayers",
          "type": "uint256"
        },
        {
          "internalType": "uint256",
          "name": "raffleState",
          "type": "uint256"
        }
      ],
      "name": "Raffle__UpkeepNotNeeded",
      "type": "error"
    },
    {
      "inputs": [],
      "name": "ZeroAddress",
      "type": "error"
    },
    {
      "anonymous": false,
      "inputs": [
        {
          "indexed": false,
          "internalType": "address",
          "name": "vrfCoordinator",
          "type": "address"
        }
      ],
      "name": "CoordinatorSet",
      "type": "event"
    },
    {
      "anonymous": false,
      "inputs": [
        {
          "indexed": true,
          "internalType": "address",
          "name": "from",
          "type": "address"
        },
        {
          "indexed": true,
          "internalType": "address",
          "name": "to",
          "type": "address"
        }
      ],
      "name": "OwnershipTransferRequested",
      "type": "event"
    },
    {
      "anonymous": false,
      "inputs": [
        {
          "indexed": true,
          "internalType": "address",
          "name": "from",
          "type": "address"
        },
        {
          "indexed": true,
          "internalType": "address",
          "name": "to",
          "type": "address"
        }
      ],
      "name": "OwnershipTransferred",
      "type": "event"
    },
    {
      "anonymous": false,
      "inputs": [
        {
          "indexed": true,
          "internalType": "address",
          "name": "player",
          "type": "address"
        }
      ],
      "name": "RaffleEnter",
      "type": "event"
    },
    {
      "anonymous": false,
      "inputs": [
        {
          "indexed": true,
          "internalType": "uint256",
          "name": "requestId",
          "type": "uint256"
        }
      ],
      "name": "RequestRaffleWinner",
      "type": "event"
    },
    {
      "anonymous": false,
      "inputs": [
        {
          "indexed": true,
          "internalType": "address",
          "name": "winner",
          "type": "address"
        }
      ],
      "name": "WinnerPicked",
      "type": "event"
    },
    {
      "inputs": [],
      "name": "acceptOwnership",
      "outputs": [],
      "stateMutability": "nonpayable",
      "type": "function"
    },
    {
      "inputs": [
        {
          "internalType": "bytes",
          "name": "",
          "type": "bytes"
        }
      ],
      "name": "checkUpkeep",
      "outputs": [
        {
          "internalType": "bool",
          "name": "upkeepNeeded",
          "type": "bool"
        },
        {
          "internalType": "bytes",
          "name": "performData",
          "type": "bytes"
        }
      ],
      "stateMutability": "view",
      "type": "function"
    },
    {
      "inputs": [],
      "name": "enterRaffle",
      "outputs": [],
      "stateMutability": "payable",
      "type": "function"
    },
    {
      "inputs": [],
      "name": "getEntranceFee",
      "outputs": [
        {
          "internalType": "uint256",
          "name": "",
          "type": "uint256"
        }
      ],
      "stateMutability": "view",
      "type": "function"
    },
    {
      "inputs": [],
      "name": "getLatestTimeStamp",
      "outputs": [
        {
          "internalType": "uint256",
          "name": "",
          "type": "uint256"
        }
      ],
      "stateMutability": "view",
      "type": "function"
    },
    {
      "inputs": [],
      "name": "getNumOfPlayers",
      "outputs": [
        {
          "internalType": "uint256",
          "name": "",
          "type": "uint256"
        }
      ],
      "stateMutability": "view",
      "type": "function"
    },
    {
      "inputs": [],
      "name": "getNumWords",
      "outputs": [
        {
          "internalType": "uint256",
          "name": "",
          "type": "uint256"
        }
      ],
      "stateMutability": "pure",
      "type": "function"
    },
    {
      "inputs": [
        {
          "internalType": "uint256",
          "name": "index",
          "type": "uint256"
        }
      ],
      "name": "getPlayers",
      "outputs": [
        {
          "internalType": "address",
          "name": "",
          "type": "address"
        }
      ],
      "stateMutability": "view",
      "type": "function"
    },
    {
      "inputs": [],
      "name": "getRaffleState",
      "outputs": [
        {
          "internalType": "enum Raffle.RaffleState",
          "name": "",
          "type": "uint8"
        }
      ],
      "stateMutability": "view",
      "type": "function"
    },
    {
      "inputs": [],
      "name": "getRecentWinner",
      "outputs": [
        {
          "internalType": "address",
          "name": "",
          "type": "address"
        }
      ],
      "stateMutability": "view",
      "type": "function"
    },
    {
      "inputs": [],
      "name": "getRequestConfirmations",
      "outputs": [
        {
          "internalType": "uint256",
          "name": "",
          "type": "uint256"
        }
      ],
      "stateMutability": "pure",
      "type": "function"
    },
    {
      "inputs": [],
      "name": "owner",
      "outputs": [
        {
          "internalType": "address",
          "name": "",
          "type": "address"
        }
      ],
      "stateMutability": "view",
      "type": "function"
    },
    {
      "inputs": [
        {
          "internalType": "bytes",
          "name": "",
          "type": "bytes"
        }
      ],
      "name": "performUpkeep",
      "outputs": [],
      "stateMutability": "nonpayable",
      "type": "function"
    },
    {
      "inputs": [
        {
          "internalType": "uint256",
          "name": "requestId",
          "type": "uint256"
        },
        {
          "internalType": "uint256[]",
          "name": "randomWords",
          "type": "uint256[]"
        }
      ],
      "name": "rawFulfillRandomWords",
      "outputs": [],
      "stateMutability": "nonpayable",
      "type": "function"
    },
    {
      "inputs": [],
      "name": "s_vrfCoordinator",
      "outputs": [
        {
          "internalType": "contract IVRFCoordinatorV2Plus",
          "name": "",
          "type": "address"
        }
      ],
      "stateMutability": "view",
      "type": "function"
    },
    {
      "inputs": [
        {
          "internalType": "address",
          "name": "_vrfCoordinator",
          "type": "address"
        }
      ],
      "name": "setCoordinator",
      "outputs": [],
      "stateMutability": "nonpayable",
      "type": "function"
    },
    {
      "inputs": [
        {
          "internalType": "address",
          "name": "to",
          "type": "address"
        }
      ],
      "name": "transferOwnership",
      "outputs": [],
      "stateMutability": "nonpayable",
      "type": "function"
    }
  ],
  "transactionHash": "0x5a7da0397ed61d13c2d7225c0dda6f54fec0f2a085c024eaf00fa6841070f2d0",
  "args": [
    "0x5FbDB2315678afecb367f032d93F642f64180aa3",
    "10000000000000000",
    "0x474e34a077df58807dbe9c96d3c009b23b3c6d0cce433e59bbf5b34f823bc56c",
    "0xd84ffea181f9ed4eda92ef6fb3f84050f183a74f10bb11a6103fa4a72837ecd9",
    "500000",
    "30"
  ],
  "numDeployments": 1,
  "solcInputHash": "f5c475193037c6d56b2e6fa310b7875d",
  "bytecode": "0x6101206040523480156200001257600080fd5b5060405162002549380380620025498339818101604052810190620000389190620004a7565b85338060008073ffffffffffffffffffffffffffffffffffffffff168273ffffffffffffffffffffffffffffffffffffffff1603620000ae576040517f08c379a0000000000000000000000000000000000000000000000000000000008152600401620000a590620005a4565b60405180910390fd5b816000806101000a81548173ffffffffffffffffffffffffffffffffffffffff021916908373ffffffffffffffffffffffffffffffffffffffff160217905550600073ffffffffffffffffffffffffffffffffffffffff168173ffffffffffffffffffffffffffffffffffffffff1614620001355762000134816200025760201b60201c565b5b505050600073ffffffffffffffffffffffffffffffffffffffff168173ffffffffffffffffffffffffffffffffffffffff16036200019f576040517fd92e233d00000000000000000000000000000000000000000000000000000000815260040160405180910390fd5b80600260006101000a81548173ffffffffffffffffffffffffffffffffffffffff021916908373ffffffffffffffffffffffffffffffffffffffff1602179055505084608081815250508360a081815250508260c081815250508163ffffffff1660e08163ffffffff16815250506000600460146101000a81548160ff02191690836001811115620002365762000235620005c6565b5b02179055504260058190555080610100818152505050505050505062000667565b3373ffffffffffffffffffffffffffffffffffffffff168173ffffffffffffffffffffffffffffffffffffffff1603620002c8576040517f08c379a0000000000000000000000000000000000000000000000000000000008152600401620002bf9062000645565b60405180910390fd5b80600160006101000a81548173ffffffffffffffffffffffffffffffffffffffff021916908373ffffffffffffffffffffffffffffffffffffffff1602179055508073ffffffffffffffffffffffffffffffffffffffff1660008054906101000a900473ffffffffffffffffffffffffffffffffffffffff1673ffffffffffffffffffffffffffffffffffffffff167fed8889f560326eb138920d842192f0eb3dd22b4f139c87a2c57538e05bae127860405160405180910390a350565b600080fd5b600073ffffffffffffffffffffffffffffffffffffffff82169050919050565b6000620003b8826200038b565b9050919050565b620003ca81620003ab565b8114620003d657600080fd5b50565b600081519050620003ea81620003bf565b92915050565b6000819050919050565b6200040581620003f0565b81146200041157600080fd5b50565b6000815190506200042581620003fa565b92915050565b6000819050919050565b62000440816200042b565b81146200044c57600080fd5b50565b600081519050620004608162000435565b92915050565b600063ffffffff82169050919050565b620004818162000466565b81146200048d57600080fd5b50565b600081519050620004a18162000476565b92915050565b60008060008060008060c08789031215620004c757620004c662000386565b5b6000620004d789828a01620003d9565b9650506020620004ea89828a0162000414565b9550506040620004fd89828a016200044f565b94505060606200051089828a0162000414565b93505060806200052389828a0162000490565b92505060a06200053689828a0162000414565b9150509295509295509295565b600082825260208201905092915050565b7f43616e6e6f7420736574206f776e657220746f207a65726f0000000000000000600082015250565b60006200058c60188362000543565b9150620005998262000554565b602082019050919050565b60006020820190508181036000830152620005bf816200057d565b9050919050565b7f4e487b7100000000000000000000000000000000000000000000000000000000600052602160045260246000fd5b7f43616e6e6f74207472616e7366657220746f2073656c66000000000000000000600082015250565b60006200062d60178362000543565b91506200063a82620005f5565b602082019050919050565b6000602082019050818103600083015262000660816200061e565b9050919050565b60805160a05160c05160e05161010051611e96620006b360003960006109610152600061079c0152600061076b015260006107450152600081816103ca01526104cd0152611e966000f3fe6080604052600436106100fe5760003560e01c806353a2c19a1161009557806379ba50971161006457806379ba5097146103075780638da5cb5b1461031e5780638ea98117146103495780639eccacf614610372578063f2fde38b1461039d576100fe565b806353a2c19a14610248578063565429de146102735780635f1b0fd81461029e5780636e04ff0d146102c9576100fe565b8063320229eb116100d1578063320229eb1461018c5780634585e33b146101b7578063460e2049146101e0578063473f1ddc1461021d576100fe565b806309bc33a714610103578063115cbaf51461012e5780631fe543e3146101595780632cfcc53914610182575b600080fd5b34801561010f57600080fd5b506101186103c6565b6040516101259190611322565b60405180910390f35b34801561013a57600080fd5b506101436103ee565b60405161015091906113b4565b60405180910390f35b34801561016557600080fd5b50610180600480360381019061017b9190611474565b610405565b005b61018a6104cb565b005b34801561019857600080fd5b506101a161063a565b6040516101ae9190611322565b60405180910390f35b3480156101c357600080fd5b506101de60048036038101906101d9919061152a565b610644565b005b3480156101ec57600080fd5b5061020760048036038101906102029190611577565b610884565b60405161021491906115e5565b60405180910390f35b34801561022957600080fd5b506102326108cc565b60405161023f91906115e5565b60405180910390f35b34801561025457600080fd5b5061025d6108f6565b60405161026a9190611322565b60405180910390f35b34801561027f57600080fd5b50610288610905565b6040516102959190611322565b60405180910390f35b3480156102aa57600080fd5b506102b3610912565b6040516102c09190611322565b60405180910390f35b3480156102d557600080fd5b506102f060048036038101906102eb9190611741565b61091f565b6040516102fe929190611824565b60405180910390f35b34801561031357600080fd5b5061031c6109dd565b005b34801561032a57600080fd5b50610333610b72565b60405161034091906115e5565b60405180910390f35b34801561035557600080fd5b50610370600480360381019061036b9190611880565b610b9b565b005b34801561037e57600080fd5b50610387610d7c565b604051610394919061190c565b60405180910390f35b3480156103a957600080fd5b506103c460048036038101906103bf9190611880565b610da2565b005b60007f0000000000000000000000000000000000000000000000000000000000000000905090565b6000600460149054906101000a900460ff16905090565b600260009054906101000a900473ffffffffffffffffffffffffffffffffffffffff1673ffffffffffffffffffffffffffffffffffffffff163373ffffffffffffffffffffffffffffffffffffffff16146104bb5733600260009054906101000a900473ffffffffffffffffffffffffffffffffffffffff166040517f1cf993f40000000000000000000000000000000000000000000000000000000081526004016104b2929190611927565b60405180910390fd5b6104c6838383610db6565b505050565b7f0000000000000000000000000000000000000000000000000000000000000000341015610525576040517f3266619600000000000000000000000000000000000000000000000000000000815260040160405180910390fd5b600060018111156105395761053861133d565b5b600460149054906101000a900460ff16600181111561055b5761055a61133d565b5b14610592576040517f621618da00000000000000000000000000000000000000000000000000000000815260040160405180910390fd5b6003339080600181540180825580915050600190039060005260206000200160009091909190916101000a81548173ffffffffffffffffffffffffffffffffffffffff021916908373ffffffffffffffffffffffffffffffffffffffff1602179055503373ffffffffffffffffffffffffffffffffffffffff167f0805e1d667bddb8a95f0f09880cf94f403fb596ce79928d9f29b74203ba284d460405160405180910390a2565b6000600554905090565b600061065e6040518060200160405280600081525061091f565b509050806106cd5747600380549050600460149054906101000a900460ff16600181111561068f5761068e61133d565b5b6040517f584327aa0000000000000000000000000000000000000000000000000000000081526004016106c493929190611950565b60405180910390fd5b6001600460146101000a81548160ff021916908360018111156106f3576106f261133d565b5b02179055506000600260009054906101000a900473ffffffffffffffffffffffffffffffffffffffff1673ffffffffffffffffffffffffffffffffffffffff16639b1c385e6040518060c001604052807f000000000000000000000000000000000000000000000000000000000000000081526020017f00000000000000000000000000000000000000000000000000000000000000008152602001600361ffff1681526020017f000000000000000000000000000000000000000000000000000000000000000063ffffffff168152602001600263ffffffff1681526020016107ed60405180602001604052806001151581525061100e565b8152506040518263ffffffff1660e01b815260040161080c9190611abe565b6020604051808303816000875af115801561082b573d6000803e3d6000fd5b505050506040513d601f19601f8201168201806040525081019061084f9190611af5565b9050807fde6349b018d6c03d837b67d9a198a6ba4842546f2295fe963fae141e5dbaef8160405160405180910390a250505050565b60006003828154811061089a57610899611b22565b5b9060005260206000200160009054906101000a900473ffffffffffffffffffffffffffffffffffffffff169050919050565b6000600460009054906101000a900473ffffffffffffffffffffffffffffffffffffffff16905090565b6000600263ffffffff16905090565b6000600380549050905090565b6000600361ffff16905090565b6000606060008060018111156109385761093761133d565b5b600460149054906101000a900460ff16600181111561095a5761095961133d565b5b14905060007f00000000000000000000000000000000000000000000000000000000000000006005544261098e9190611b80565b119050600080600380549050119050600080471190508380156109ae5750825b80156109b75750815b80156109c05750805b955060405180602001604052806000815250945050505050915091565b600160009054906101000a900473ffffffffffffffffffffffffffffffffffffffff1673ffffffffffffffffffffffffffffffffffffffff163373ffffffffffffffffffffffffffffffffffffffff1614610a6d576040517f08c379a0000000000000000000000000000000000000000000000000000000008152600401610a6490611c11565b60405180910390fd5b60008060009054906101000a900473ffffffffffffffffffffffffffffffffffffffff169050336000806101000a81548173ffffffffffffffffffffffffffffffffffffffff021916908373ffffffffffffffffffffffffffffffffffffffff1602179055506000600160006101000a81548173ffffffffffffffffffffffffffffffffffffffff021916908373ffffffffffffffffffffffffffffffffffffffff1602179055503373ffffffffffffffffffffffffffffffffffffffff168173ffffffffffffffffffffffffffffffffffffffff167f8be0079c531659141344cd1fd0a4f28419497f9722a3daafe3b4186f6b6457e060405160405180910390a350565b60008060009054906101000a900473ffffffffffffffffffffffffffffffffffffffff16905090565b610ba3610b72565b73ffffffffffffffffffffffffffffffffffffffff163373ffffffffffffffffffffffffffffffffffffffff1614158015610c2c5750600260009054906101000a900473ffffffffffffffffffffffffffffffffffffffff1673ffffffffffffffffffffffffffffffffffffffff163373ffffffffffffffffffffffffffffffffffffffff1614155b15610c9b5733610c3a610b72565b600260009054906101000a900473ffffffffffffffffffffffffffffffffffffffff166040517f061db9c1000000000000000000000000000000000000000000000000000000008152600401610c9293929190611c31565b60405180910390fd5b600073ffffffffffffffffffffffffffffffffffffffff168173ffffffffffffffffffffffffffffffffffffffff1603610d01576040517fd92e233d00000000000000000000000000000000000000000000000000000000815260040160405180910390fd5b80600260006101000a81548173ffffffffffffffffffffffffffffffffffffffff021916908373ffffffffffffffffffffffffffffffffffffffff1602179055507fd1a6a14209a385a964d036e404cb5cfb71f4000cdb03c9366292430787261be681604051610d7191906115e5565b60405180910390a150565b600260009054906101000a900473ffffffffffffffffffffffffffffffffffffffff1681565b610daa6110a6565b610db381611136565b50565b600060038054905083836001818110610dd257610dd1611b22565b5b9050602002013584846000818110610ded57610dec611b22565b5b90506020020135610dfe9190611c68565b610e089190611ccb565b9050600060038281548110610e2057610e1f611b22565b5b9060005260206000200160009054906101000a900473ffffffffffffffffffffffffffffffffffffffff16905080600460006101000a81548173ffffffffffffffffffffffffffffffffffffffff021916908373ffffffffffffffffffffffffffffffffffffffff160217905550426005819055506000600460146101000a81548160ff02191690836001811115610ebb57610eba61133d565b5b0217905550600067ffffffffffffffff811115610edb57610eda611616565b5b604051908082528060200260200182016040528015610f095781602001602082028036833780820191505090505b5060039080519060200190610f1f929190611262565b5060008173ffffffffffffffffffffffffffffffffffffffff1647604051610f4690611d2d565b60006040518083038185875af1925050503d8060008114610f83576040519150601f19603f3d011682016040523d82523d6000602084013e610f88565b606091505b5050905080610fc3576040517f2850151100000000000000000000000000000000000000000000000000000000815260040160405180910390fd5b8173ffffffffffffffffffffffffffffffffffffffff167f5b690ec4a06fe979403046eaeea5b3ce38524683c3001f662c8b5a829632f7df60405160405180910390a2505050505050565b60607f92fd13387c7fe7befbc38d303d6468778fb9731bc4583f17d92989c6fcfdeaaa826040516024016110429190611d6d565b604051602081830303815290604052907bffffffffffffffffffffffffffffffffffffffffffffffffffffffff19166020820180517bffffffffffffffffffffffffffffffffffffffffffffffffffffffff83818316178352505050509050919050565b60008054906101000a900473ffffffffffffffffffffffffffffffffffffffff1673ffffffffffffffffffffffffffffffffffffffff163373ffffffffffffffffffffffffffffffffffffffff1614611134576040517f08c379a000000000000000000000000000000000000000000000000000000000815260040161112b90611dd4565b60405180910390fd5b565b3373ffffffffffffffffffffffffffffffffffffffff168173ffffffffffffffffffffffffffffffffffffffff16036111a4576040517f08c379a000000000000000000000000000000000000000000000000000000000815260040161119b90611e40565b60405180910390fd5b80600160006101000a81548173ffffffffffffffffffffffffffffffffffffffff021916908373ffffffffffffffffffffffffffffffffffffffff1602179055508073ffffffffffffffffffffffffffffffffffffffff1660008054906101000a900473ffffffffffffffffffffffffffffffffffffffff1673ffffffffffffffffffffffffffffffffffffffff167fed8889f560326eb138920d842192f0eb3dd22b4f139c87a2c57538e05bae127860405160405180910390a350565b8280548282559060005260206000209081019282156112db579160200282015b828111156112da5782518260006101000a81548173ffffffffffffffffffffffffffffffffffffffff021916908373ffffffffffffffffffffffffffffffffffffffff16021790555091602001919060010190611282565b5b5090506112e891906112ec565b5090565b5b808211156113055760008160009055506001016112ed565b5090565b6000819050919050565b61131c81611309565b82525050565b60006020820190506113376000830184611313565b92915050565b7f4e487b7100000000000000000000000000000000000000000000000000000000600052602160045260246000fd5b6002811061137d5761137c61133d565b5b50565b600081905061138e8261136c565b919050565b600061139e82611380565b9050919050565b6113ae81611393565b82525050565b60006020820190506113c960008301846113a5565b92915050565b6000604051905090565b600080fd5b600080fd5b6113ec81611309565b81146113f757600080fd5b50565b600081359050611409816113e3565b92915050565b600080fd5b600080fd5b600080fd5b60008083601f8401126114345761143361140f565b5b8235905067ffffffffffffffff81111561145157611450611414565b5b60208301915083602082028301111561146d5761146c611419565b5b9250929050565b60008060006040848603121561148d5761148c6113d9565b5b600061149b868287016113fa565b935050602084013567ffffffffffffffff8111156114bc576114bb6113de565b5b6114c88682870161141e565b92509250509250925092565b60008083601f8401126114ea576114e961140f565b5b8235905067ffffffffffffffff81111561150757611506611414565b5b60208301915083600182028301111561152357611522611419565b5b9250929050565b60008060208385031215611541576115406113d9565b5b600083013567ffffffffffffffff81111561155f5761155e6113de565b5b61156b858286016114d4565b92509250509250929050565b60006020828403121561158d5761158c6113d9565b5b600061159b848285016113fa565b91505092915050565b600073ffffffffffffffffffffffffffffffffffffffff82169050919050565b60006115cf826115a4565b9050919050565b6115df816115c4565b82525050565b60006020820190506115fa60008301846115d6565b92915050565b600080fd5b6000601f19601f8301169050919050565b7f4e487b7100000000000000000000000000000000000000000000000000000000600052604160045260246000fd5b61164e82611605565b810181811067ffffffffffffffff8211171561166d5761166c611616565b5b80604052505050565b60006116806113cf565b905061168c8282611645565b919050565b600067ffffffffffffffff8211156116ac576116ab611616565b5b6116b582611605565b9050602081019050919050565b82818337600083830152505050565b60006116e46116df84611691565b611676565b905082815260208101848484011115611700576116ff611600565b5b61170b8482856116c2565b509392505050565b600082601f8301126117285761172761140f565b5b81356117388482602086016116d1565b91505092915050565b600060208284031215611757576117566113d9565b5b600082013567ffffffffffffffff811115611775576117746113de565b5b61178184828501611713565b91505092915050565b60008115159050919050565b61179f8161178a565b82525050565b600081519050919050565b600082825260208201905092915050565b60005b838110156117df5780820151818401526020810190506117c4565b60008484015250505050565b60006117f6826117a5565b61180081856117b0565b93506118108185602086016117c1565b61181981611605565b840191505092915050565b60006040820190506118396000830185611796565b818103602083015261184b81846117eb565b90509392505050565b61185d816115c4565b811461186857600080fd5b50565b60008135905061187a81611854565b92915050565b600060208284031215611896576118956113d9565b5b60006118a48482850161186b565b91505092915050565b6000819050919050565b60006118d26118cd6118c8846115a4565b6118ad565b6115a4565b9050919050565b60006118e4826118b7565b9050919050565b60006118f6826118d9565b9050919050565b611906816118eb565b82525050565b600060208201905061192160008301846118fd565b92915050565b600060408201905061193c60008301856115d6565b61194960208301846115d6565b9392505050565b60006060820190506119656000830186611313565b6119726020830185611313565b61197f6040830184611313565b949350505050565b6000819050919050565b61199a81611987565b82525050565b6119a981611309565b82525050565b600061ffff82169050919050565b6119c6816119af565b82525050565b600063ffffffff82169050919050565b6119e5816119cc565b82525050565b600082825260208201905092915050565b6000611a07826117a5565b611a1181856119eb565b9350611a218185602086016117c1565b611a2a81611605565b840191505092915050565b600060c083016000830151611a4d6000860182611991565b506020830151611a6060208601826119a0565b506040830151611a7360408601826119bd565b506060830151611a8660608601826119dc565b506080830151611a9960808601826119dc565b5060a083015184820360a0860152611ab182826119fc565b9150508091505092915050565b60006020820190508181036000830152611ad88184611a35565b905092915050565b600081519050611aef816113e3565b92915050565b600060208284031215611b0b57611b0a6113d9565b5b6000611b1984828501611ae0565b91505092915050565b7f4e487b7100000000000000000000000000000000000000000000000000000000600052603260045260246000fd5b7f4e487b7100000000000000000000000000000000000000000000000000000000600052601160045260246000fd5b6000611b8b82611309565b9150611b9683611309565b9250828203905081811115611bae57611bad611b51565b5b92915050565b600082825260208201905092915050565b7f4d7573742062652070726f706f736564206f776e657200000000000000000000600082015250565b6000611bfb601683611bb4565b9150611c0682611bc5565b602082019050919050565b60006020820190508181036000830152611c2a81611bee565b9050919050565b6000606082019050611c4660008301866115d6565b611c5360208301856115d6565b611c6060408301846115d6565b949350505050565b6000611c7382611309565b9150611c7e83611309565b9250828201905080821115611c9657611c95611b51565b5b92915050565b7f4e487b7100000000000000000000000000000000000000000000000000000000600052601260045260246000fd5b6000611cd682611309565b9150611ce183611309565b925082611cf157611cf0611c9c565b5b828206905092915050565b600081905092915050565b50565b6000611d17600083611cfc565b9150611d2282611d07565b600082019050919050565b6000611d3882611d0a565b9150819050919050565b611d4b8161178a565b82525050565b602082016000820151611d676000850182611d42565b50505050565b6000602082019050611d826000830184611d51565b92915050565b7f4f6e6c792063616c6c61626c65206279206f776e657200000000000000000000600082015250565b6000611dbe601683611bb4565b9150611dc982611d88565b602082019050919050565b60006020820190508181036000830152611ded81611db1565b9050919050565b7f43616e6e6f74207472616e7366657220746f2073656c66000000000000000000600082015250565b6000611e2a601783611bb4565b9150611e3582611df4565b602082019050919050565b60006020820190508181036000830152611e5981611e1d565b905091905056fea26469706673582212202b5d876b7193822cd096eb6e64ceb80490e3d544d8479e0f9667670126140f9664736f6c63430008130033",
  "devdoc": {
    "author": "Dominic",
    "details": "This implements chainlink VRF V2.5 and chainklink upkeepers",
    "kind": "dev",
    "methods": {
      "checkUpkeep(bytes)": {
        "details": "This is the function that the chainlink keeper nodes call they look for the upkeepNeeded to return true  1. our time interbal should have passed  2. the lottery should have 1 player  3. our subscription is funded with link  4. the lottery should be in the 'open' state"
      }
    },
    "title": "A sample Raffle Contract",
    "version": 1
  },
  "userdoc": {
    "kind": "user",
    "methods": {
      "acceptOwnership()": {
        "notice": "Allows an ownership transfer to be completed by the recipient."
      },
      "owner()": {
        "notice": "Get the current owner"
      },
      "setCoordinator(address)": {
        "notice": "Sets the VRF Coordinator addressThis method should only be callable by the coordinator or contract owner"
      },
      "transferOwnership(address)": {
        "notice": "Allows an owner to begin transferring ownership to a new address."
      }
    },
    "notice": "This contract is for creating an untamperable decentralized smart contract",
    "version": 1
  },
  "storageLayout": {
    "storage": [
      {
        "astId": 48,
        "contract": "contracts/Raffle.sol:Raffle",
        "label": "s_owner",
        "offset": 0,
        "slot": "0",
        "type": "t_address"
      },
      {
        "astId": 50,
        "contract": "contracts/Raffle.sol:Raffle",
        "label": "s_pendingOwner",
        "offset": 0,
        "slot": "1",
        "type": "t_address"
      },
      {
        "astId": 2331,
        "contract": "contracts/Raffle.sol:Raffle",
        "label": "s_vrfCoordinator",
        "offset": 0,
        "slot": "2",
        "type": "t_contract(IVRFCoordinatorV2Plus)2480"
      },
      {
        "astId": 3485,
        "contract": "contracts/Raffle.sol:Raffle",
        "label": "s_players",
        "offset": 0,
        "slot": "3",
        "type": "t_array(t_address_payable)dyn_storage"
      },
      {
        "astId": 3499,
        "contract": "contracts/Raffle.sol:Raffle",
        "label": "s_recentWinner",
        "offset": 0,
        "slot": "4",
        "type": "t_address"
      },
      {
        "astId": 3502,
        "contract": "contracts/Raffle.sol:Raffle",
        "label": "s_raffleState",
        "offset": 20,
        "slot": "4",
        "type": "t_enum(RaffleState)3480"
      },
      {
        "astId": 3504,
        "contract": "contracts/Raffle.sol:Raffle",
        "label": "s_lastTimeStamp",
        "offset": 0,
        "slot": "5",
        "type": "t_uint256"
      }
    ],
    "types": {
      "t_address": {
        "encoding": "inplace",
        "label": "address",
        "numberOfBytes": "20"
      },
      "t_address_payable": {
        "encoding": "inplace",
        "label": "address payable",
        "numberOfBytes": "20"
      },
      "t_array(t_address_payable)dyn_storage": {
        "base": "t_address_payable",
        "encoding": "dynamic_array",
        "label": "address payable[]",
        "numberOfBytes": "32"
      },
      "t_contract(IVRFCoordinatorV2Plus)2480": {
        "encoding": "inplace",
        "label": "contract IVRFCoordinatorV2Plus",
        "numberOfBytes": "20"
      },
      "t_enum(RaffleState)3480": {
        "encoding": "inplace",
        "label": "enum Raffle.RaffleState",
        "numberOfBytes": "1"
      },
      "t_uint256": {
        "encoding": "inplace",
        "label": "uint256",
        "numberOfBytes": "32"
      }
    }
  }
}